{
  "contractName": "Token",
  "abi": [
    {
      "inputs": [],
      "stateMutability": "nonpayable",
      "type": "constructor"
    },
    {
      "anonymous": false,
      "inputs": [
        {
          "indexed": true,
          "internalType": "address",
          "name": "owner",
          "type": "address"
        },
        {
          "indexed": true,
          "internalType": "address",
          "name": "spender",
          "type": "address"
        },
        {
          "indexed": false,
          "internalType": "uint256",
          "name": "value",
          "type": "uint256"
        }
      ],
      "name": "Approval",
      "type": "event"
    },
    {
      "anonymous": false,
      "inputs": [
        {
          "indexed": true,
          "internalType": "address",
          "name": "previousOwner",
          "type": "address"
        },
        {
          "indexed": true,
          "internalType": "address",
          "name": "newOwner",
          "type": "address"
        }
      ],
      "name": "OwnershipTransferred",
      "type": "event"
    },
    {
      "anonymous": false,
      "inputs": [
        {
          "indexed": false,
          "internalType": "address",
          "name": "account",
          "type": "address"
        }
      ],
      "name": "Paused",
      "type": "event"
    },
    {
      "anonymous": false,
      "inputs": [
        {
          "indexed": true,
          "internalType": "bytes32",
          "name": "role",
          "type": "bytes32"
        },
        {
          "indexed": true,
          "internalType": "bytes32",
          "name": "previousAdminRole",
          "type": "bytes32"
        },
        {
          "indexed": true,
          "internalType": "bytes32",
          "name": "newAdminRole",
          "type": "bytes32"
        }
      ],
      "name": "RoleAdminChanged",
      "type": "event"
    },
    {
      "anonymous": false,
      "inputs": [
        {
          "indexed": true,
          "internalType": "bytes32",
          "name": "role",
          "type": "bytes32"
        },
        {
          "indexed": true,
          "internalType": "address",
          "name": "account",
          "type": "address"
        },
        {
          "indexed": true,
          "internalType": "address",
          "name": "sender",
          "type": "address"
        }
      ],
      "name": "RoleGranted",
      "type": "event"
    },
    {
      "anonymous": false,
      "inputs": [
        {
          "indexed": true,
          "internalType": "bytes32",
          "name": "role",
          "type": "bytes32"
        },
        {
          "indexed": true,
          "internalType": "address",
          "name": "account",
          "type": "address"
        },
        {
          "indexed": true,
          "internalType": "address",
          "name": "sender",
          "type": "address"
        }
      ],
      "name": "RoleRevoked",
      "type": "event"
    },
    {
      "anonymous": false,
      "inputs": [
        {
          "indexed": true,
          "internalType": "address",
          "name": "from",
          "type": "address"
        },
        {
          "indexed": true,
          "internalType": "address",
          "name": "to",
          "type": "address"
        },
        {
          "indexed": false,
          "internalType": "uint256",
          "name": "value",
          "type": "uint256"
        }
      ],
      "name": "Transfer",
      "type": "event"
    },
    {
      "anonymous": false,
      "inputs": [
        {
          "indexed": false,
          "internalType": "address",
          "name": "account",
          "type": "address"
        }
      ],
      "name": "Unpaused",
      "type": "event"
    },
    {
      "inputs": [],
      "name": "CAPPER_ROLE",
      "outputs": [
        {
          "internalType": "bytes32",
          "name": "",
          "type": "bytes32"
        }
      ],
      "stateMutability": "view",
      "type": "function",
      "constant": true
    },
    {
      "inputs": [],
      "name": "DEFAULT_ADMIN_ROLE",
      "outputs": [
        {
          "internalType": "bytes32",
          "name": "",
          "type": "bytes32"
        }
      ],
      "stateMutability": "view",
      "type": "function",
      "constant": true
    },
    {
      "inputs": [],
      "name": "MINTER_ROLE",
      "outputs": [
        {
          "internalType": "bytes32",
          "name": "",
          "type": "bytes32"
        }
      ],
      "stateMutability": "view",
      "type": "function",
      "constant": true
    },
    {
      "inputs": [],
      "name": "PAUSER_ROLE",
      "outputs": [
        {
          "internalType": "bytes32",
          "name": "",
          "type": "bytes32"
        }
      ],
      "stateMutability": "view",
      "type": "function",
      "constant": true
    },
    {
      "inputs": [
        {
          "internalType": "address",
          "name": "owner",
          "type": "address"
        },
        {
          "internalType": "address",
          "name": "spender",
          "type": "address"
        }
      ],
      "name": "allowance",
      "outputs": [
        {
          "internalType": "uint256",
          "name": "",
          "type": "uint256"
        }
      ],
      "stateMutability": "view",
      "type": "function",
      "constant": true
    },
    {
      "inputs": [
        {
          "internalType": "address",
          "name": "spender",
          "type": "address"
        },
        {
          "internalType": "uint256",
          "name": "amount",
          "type": "uint256"
        }
      ],
      "name": "approve",
      "outputs": [
        {
          "internalType": "bool",
          "name": "",
          "type": "bool"
        }
      ],
      "stateMutability": "nonpayable",
      "type": "function"
    },
    {
      "inputs": [
        {
          "internalType": "address",
          "name": "account",
          "type": "address"
        }
      ],
      "name": "balanceOf",
      "outputs": [
        {
          "internalType": "uint256",
          "name": "",
          "type": "uint256"
        }
      ],
      "stateMutability": "view",
      "type": "function",
      "constant": true
    },
    {
      "inputs": [
        {
          "internalType": "uint256",
          "name": "amount",
          "type": "uint256"
        }
      ],
      "name": "burn",
      "outputs": [],
      "stateMutability": "nonpayable",
      "type": "function"
    },
    {
      "inputs": [
        {
          "internalType": "address",
          "name": "account",
          "type": "address"
        },
        {
          "internalType": "uint256",
          "name": "amount",
          "type": "uint256"
        }
      ],
      "name": "burnFrom",
      "outputs": [],
      "stateMutability": "nonpayable",
      "type": "function"
    },
    {
      "inputs": [],
      "name": "decimals",
      "outputs": [
        {
          "internalType": "uint8",
          "name": "",
          "type": "uint8"
        }
      ],
      "stateMutability": "view",
      "type": "function",
      "constant": true
    },
    {
      "inputs": [
        {
          "internalType": "address",
          "name": "spender",
          "type": "address"
        },
        {
          "internalType": "uint256",
          "name": "subtractedValue",
          "type": "uint256"
        }
      ],
      "name": "decreaseAllowance",
      "outputs": [
        {
          "internalType": "bool",
          "name": "",
          "type": "bool"
        }
      ],
      "stateMutability": "nonpayable",
      "type": "function"
    },
    {
      "inputs": [
        {
          "internalType": "bytes32",
          "name": "role",
          "type": "bytes32"
        }
      ],
      "name": "getRoleAdmin",
      "outputs": [
        {
          "internalType": "bytes32",
          "name": "",
          "type": "bytes32"
        }
      ],
      "stateMutability": "view",
      "type": "function",
      "constant": true
    },
    {
      "inputs": [
        {
          "internalType": "bytes32",
          "name": "role",
          "type": "bytes32"
        },
        {
          "internalType": "uint256",
          "name": "index",
          "type": "uint256"
        }
      ],
      "name": "getRoleMember",
      "outputs": [
        {
          "internalType": "address",
          "name": "",
          "type": "address"
        }
      ],
      "stateMutability": "view",
      "type": "function",
      "constant": true
    },
    {
      "inputs": [
        {
          "internalType": "bytes32",
          "name": "role",
          "type": "bytes32"
        }
      ],
      "name": "getRoleMemberCount",
      "outputs": [
        {
          "internalType": "uint256",
          "name": "",
          "type": "uint256"
        }
      ],
      "stateMutability": "view",
      "type": "function",
      "constant": true
    },
    {
      "inputs": [
        {
          "internalType": "bytes32",
          "name": "role",
          "type": "bytes32"
        },
        {
          "internalType": "address",
          "name": "account",
          "type": "address"
        }
      ],
      "name": "grantRole",
      "outputs": [],
      "stateMutability": "nonpayable",
      "type": "function"
    },
    {
      "inputs": [
        {
          "internalType": "bytes32",
          "name": "role",
          "type": "bytes32"
        },
        {
          "internalType": "address",
          "name": "account",
          "type": "address"
        }
      ],
      "name": "hasRole",
      "outputs": [
        {
          "internalType": "bool",
          "name": "",
          "type": "bool"
        }
      ],
      "stateMutability": "view",
      "type": "function",
      "constant": true
    },
    {
      "inputs": [
        {
          "internalType": "address",
          "name": "spender",
          "type": "address"
        },
        {
          "internalType": "uint256",
          "name": "addedValue",
          "type": "uint256"
        }
      ],
      "name": "increaseAllowance",
      "outputs": [
        {
          "internalType": "bool",
          "name": "",
          "type": "bool"
        }
      ],
      "stateMutability": "nonpayable",
      "type": "function"
    },
    {
      "inputs": [
        {
          "internalType": "address",
          "name": "to",
          "type": "address"
        },
        {
          "internalType": "uint256",
          "name": "amount",
          "type": "uint256"
        }
      ],
      "name": "mint",
      "outputs": [],
      "stateMutability": "nonpayable",
      "type": "function"
    },
    {
      "inputs": [],
      "name": "name",
      "outputs": [
        {
          "internalType": "string",
          "name": "",
          "type": "string"
        }
      ],
      "stateMutability": "view",
      "type": "function",
      "constant": true
    },
    {
      "inputs": [],
      "name": "owner",
      "outputs": [
        {
          "internalType": "address",
          "name": "",
          "type": "address"
        }
      ],
      "stateMutability": "view",
      "type": "function",
      "constant": true
    },
    {
      "inputs": [],
      "name": "pause",
      "outputs": [],
      "stateMutability": "nonpayable",
      "type": "function"
    },
    {
      "inputs": [],
      "name": "paused",
      "outputs": [
        {
          "internalType": "bool",
          "name": "",
          "type": "bool"
        }
      ],
      "stateMutability": "view",
      "type": "function",
      "constant": true
    },
    {
      "inputs": [],
      "name": "renounceOwnership",
      "outputs": [],
      "stateMutability": "nonpayable",
      "type": "function"
    },
    {
      "inputs": [
        {
          "internalType": "bytes32",
          "name": "role",
          "type": "bytes32"
        },
        {
          "internalType": "address",
          "name": "account",
          "type": "address"
        }
      ],
      "name": "renounceRole",
      "outputs": [],
      "stateMutability": "nonpayable",
      "type": "function"
    },
    {
      "inputs": [
        {
          "internalType": "bytes32",
          "name": "role",
          "type": "bytes32"
        },
        {
          "internalType": "address",
          "name": "account",
          "type": "address"
        }
      ],
      "name": "revokeRole",
      "outputs": [],
      "stateMutability": "nonpayable",
      "type": "function"
    },
    {
      "inputs": [
        {
          "internalType": "bytes4",
          "name": "interfaceId",
          "type": "bytes4"
        }
      ],
      "name": "supportsInterface",
      "outputs": [
        {
          "internalType": "bool",
          "name": "",
          "type": "bool"
        }
      ],
      "stateMutability": "view",
      "type": "function",
      "constant": true
    },
    {
      "inputs": [],
      "name": "symbol",
      "outputs": [
        {
          "internalType": "string",
          "name": "",
          "type": "string"
        }
      ],
      "stateMutability": "view",
      "type": "function",
      "constant": true
    },
    {
      "inputs": [],
      "name": "totalSupply",
      "outputs": [
        {
          "internalType": "uint256",
          "name": "",
          "type": "uint256"
        }
      ],
      "stateMutability": "view",
      "type": "function",
      "constant": true
    },
    {
      "inputs": [
        {
          "internalType": "address",
          "name": "to",
          "type": "address"
        },
        {
          "internalType": "uint256",
          "name": "amount",
          "type": "uint256"
        }
      ],
      "name": "transfer",
      "outputs": [
        {
          "internalType": "bool",
          "name": "",
          "type": "bool"
        }
      ],
      "stateMutability": "nonpayable",
      "type": "function"
    },
    {
      "inputs": [
        {
          "internalType": "address",
          "name": "from",
          "type": "address"
        },
        {
          "internalType": "address",
          "name": "to",
          "type": "address"
        },
        {
          "internalType": "uint256",
          "name": "amount",
          "type": "uint256"
        }
      ],
      "name": "transferFrom",
      "outputs": [
        {
          "internalType": "bool",
          "name": "",
          "type": "bool"
        }
      ],
      "stateMutability": "nonpayable",
      "type": "function"
    },
    {
      "inputs": [
        {
          "internalType": "address",
          "name": "newOwner",
          "type": "address"
        }
      ],
      "name": "transferOwnership",
      "outputs": [],
      "stateMutability": "nonpayable",
      "type": "function"
    },
    {
      "inputs": [],
      "name": "unpause",
      "outputs": [],
      "stateMutability": "nonpayable",
      "type": "function"
    },
    {
      "inputs": [],
      "name": "cap",
      "outputs": [
        {
          "internalType": "uint256",
          "name": "",
          "type": "uint256"
        }
      ],
      "stateMutability": "view",
      "type": "function",
      "constant": true
    },
    {
      "inputs": [
        {
          "internalType": "uint256",
          "name": "_newCap",
          "type": "uint256"
        }
      ],
      "name": "changeCap",
      "outputs": [],
      "stateMutability": "nonpayable",
      "type": "function"
    }
  ],
  "bytecode": "0x608060405234801562000010575f80fd5b50604051806040016040528060058152602001642a37b5b2b760d91b815250604051806040016040528060038152602001622a25a760e91b815250818181600590816200005e91906200053c565b5060066200006d82826200053c565b50506007805460ff1916905550620000865f3362000143565b620000b27f9f2df0fed2c77648de5860a4cc508cd0818c85b8b8a1ab4ceeef8d981c8956a63362000143565b620000de7f65d7a28e3265b37a6474929f336521b332c1681b933f6cb9f3376673440d862a3362000143565b50620000ec90503362000153565b620000fb565b60405180910390fd5b6301312d006008556200012f7f585dbb3f830c4325b9ffb1ad42c16ada76c518747b0fb7ee297b261fc6a0f29f3362000143565b6200013d336103e8620001ac565b62000624565b6200014f828262000222565b5050565b600780546001600160a01b03838116610100818102610100600160a81b031985161790945560405193909204169182907f8be0079c531659141344cd1fd0a4f28419497f9722a3daafe3b4186f6b6457e0905f90a35050565b60085481620001ba60045490565b620001c6919062000604565b1115620002165760405162461bcd60e51b815260206004820152601960248201527f45524332304361707065643a20636170206578636565646564000000000000006044820152606401620000f2565b6200014f82826200024c565b6200022e82826200031c565b5f828152600160205260409020620002479082620003ba565b505050565b6001600160a01b038216620002a45760405162461bcd60e51b815260206004820152601f60248201527f45524332303a206d696e7420746f20746865207a65726f2061646472657373006044820152606401620000f2565b620002b15f8383620003d9565b8060045f828254620002c4919062000604565b90915550506001600160a01b0382165f818152600260209081526040808320805486019055518481527fddf252ad1be2c89b69c2b068fc378daa952ba7f163c4a11628f55a4df523b3ef910160405180910390a35050565b5f828152602081815260408083206001600160a01b038516845290915290205460ff166200014f575f828152602081815260408083206001600160a01b03851684529091529020805460ff19166001179055620003763390565b6001600160a01b0316816001600160a01b0316837f2f8788117e7eff1d82e926ec794901d17c78024a50270940304540a733656f0d60405160405180910390a45050565b5f620003d0836001600160a01b038416620003e6565b90505b92915050565b6200024783838362000435565b5f8181526001830160205260408120546200042d57508154600181810184555f848152602080822090930184905584548482528286019093526040902091909155620003d3565b505f620003d3565b60075460ff1615620002475760405162461bcd60e51b815260206004820152602a60248201527f45524332305061757361626c653a20746f6b656e207472616e736665722077686044820152691a5b19481c185d5cd95960b21b6064820152608401620000f2565b634e487b7160e01b5f52604160045260245ffd5b600181811c90821680620004c657607f821691505b602082108103620004e557634e487b7160e01b5f52602260045260245ffd5b50919050565b601f82111562000247575f81815260208120601f850160051c81016020861015620005135750805b601f850160051c820191505b8181101562000534578281556001016200051f565b505050505050565b81516001600160401b038111156200055857620005586200049d565b6200057081620005698454620004b1565b84620004eb565b602080601f831160018114620005a6575f84156200058e5750858301515b5f19600386901b1c1916600185901b17855562000534565b5f85815260208120601f198616915b82811015620005d657888601518255948401946001909101908401620005b5565b5085821015620005f457878501515f19600388901b60f8161c191681555b5050505050600190811b01905550565b80820180821115620003d357634e487b7160e01b5f52601160045260245ffd5b611b0c80620006325f395ff3fe608060405234801561000f575f80fd5b50600436106101fd575f3560e01c806379cc679011610114578063a457c2d7116100a9578063d539139311610079578063d539139314610440578063d547741f14610467578063dd62ed3e1461047a578063e63ab1e91461048d578063f2fde38b146104b4575f80fd5b8063a457c2d7146103e0578063a9059cbb146103f3578063c7108b4314610406578063ca15c8731461042d575f80fd5b80639010d07c116100e45780639010d07c146103ab57806391d14854146103be57806395d89b41146103d1578063a217fddf146103d9575f80fd5b806379cc679014610353578063800edb9d146103665780638456cb59146103795780638da5cb5b14610381575f80fd5b8063355274ea1161019557806340c10f191161016557806340c10f19146102f257806342966c68146103055780635c975abb1461031857806370a0823114610323578063715018a61461034b575f80fd5b8063355274ea146102bc57806336568abe146102c457806339509351146102d75780633f4ba83a146102ea575f80fd5b806323b872dd116101d057806323b872dd14610263578063248a9ca3146102765780632f2ff15d14610298578063313ce567146102ad575f80fd5b806301ffc9a71461020157806306fdde0314610229578063095ea7b31461023e57806318160ddd14610251575b5f80fd5b61021461020f3660046117ef565b6104c7565b60405190151581526020015b60405180910390f35b6102316104f1565b6040516102209190611838565b61021461024c366004611885565b610581565b6004545b604051908152602001610220565b6102146102713660046118ad565b610598565b6102556102843660046118e6565b5f9081526020819052604090206001015490565b6102ab6102a63660046118fd565b6105bb565b005b60405160128152602001610220565b600854610255565b6102ab6102d23660046118fd565b6105e4565b6102146102e5366004611885565b610667565b6102ab610688565b6102ab610300366004611885565b61072e565b6102ab6103133660046118e6565b6107cd565b60075460ff16610214565b610255610331366004611927565b6001600160a01b03165f9081526002602052604090205490565b6102ab6107da565b6102ab610361366004611885565b6107eb565b6102ab6103743660046118e6565b610800565b6102ab61088f565b60075461010090046001600160a01b03165b6040516001600160a01b039091168152602001610220565b6103936103b9366004611940565b610933565b6102146103cc3660046118fd565b610951565b610231610979565b6102555f81565b6102146103ee366004611885565b610988565b610214610401366004611885565b610a02565b6102557f585dbb3f830c4325b9ffb1ad42c16ada76c518747b0fb7ee297b261fc6a0f29f81565b61025561043b3660046118e6565b610a0f565b6102557f9f2df0fed2c77648de5860a4cc508cd0818c85b8b8a1ab4ceeef8d981c8956a681565b6102ab6104753660046118fd565b610a25565b610255610488366004611960565b610a49565b6102557f65d7a28e3265b37a6474929f336521b332c1681b933f6cb9f3376673440d862a81565b6102ab6104c2366004611927565b610a73565b5f6001600160e01b03198216635a05180f60e01b14806104eb57506104eb82610ae9565b92915050565b60606005805461050090611988565b80601f016020809104026020016040519081016040528092919081815260200182805461052c90611988565b80156105775780601f1061054e57610100808354040283529160200191610577565b820191905f5260205f20905b81548152906001019060200180831161055a57829003601f168201915b5050505050905090565b5f3361058e818585610b1d565b5060019392505050565b5f336105a5858285610c40565b6105b0858585610cb8565b506001949350505050565b5f828152602081905260409020600101546105d581610e6c565b6105df8383610e76565b505050565b6001600160a01b03811633146106595760405162461bcd60e51b815260206004820152602f60248201527f416363657373436f6e74726f6c3a2063616e206f6e6c792072656e6f756e636560448201526e103937b632b9903337b91039b2b63360891b60648201526084015b60405180910390fd5b6106638282610e97565b5050565b5f3361058e8185856106798383610a49565b61068391906119d4565b610b1d565b6106b27f65d7a28e3265b37a6474929f336521b332c1681b933f6cb9f3376673440d862a33610951565b6107245760405162461bcd60e51b815260206004820152603960248201527f45524332305072657365744d696e7465725061757365723a206d75737420686160448201527f76652070617573657220726f6c6520746f20756e7061757365000000000000006064820152608401610650565b61072c610eb8565b565b6107587f9f2df0fed2c77648de5860a4cc508cd0818c85b8b8a1ab4ceeef8d981c8956a633610951565b6107c35760405162461bcd60e51b815260206004820152603660248201527f45524332305072657365744d696e7465725061757365723a206d7573742068616044820152751d99481b5a5b9d195c881c9bdb19481d1bc81b5a5b9d60521b6064820152608401610650565b6106638282610f0a565b6107d73382610f79565b50565b6107e26110b6565b61072c5f611116565b6107f6823383610c40565b6106638282610f79565b61082a7f585dbb3f830c4325b9ffb1ad42c16ada76c518747b0fb7ee297b261fc6a0f29f33610951565b61088a5760405162461bcd60e51b815260206004820152602b60248201527f546f6b656e3a206d75737420686176652063617070657220726f6c6520746f2060448201526a0736574206e6577206361760ac1b6064820152608401610650565b600855565b6108b97f65d7a28e3265b37a6474929f336521b332c1681b933f6cb9f3376673440d862a33610951565b61092b5760405162461bcd60e51b815260206004820152603760248201527f45524332305072657365744d696e7465725061757365723a206d75737420686160448201527f76652070617573657220726f6c6520746f2070617573650000000000000000006064820152608401610650565b61072c61116f565b5f82815260016020526040812061094a90836111ac565b9392505050565b5f918252602082815260408084206001600160a01b0393909316845291905290205460ff1690565b60606006805461050090611988565b5f33816109958286610a49565b9050838110156109f55760405162461bcd60e51b815260206004820152602560248201527f45524332303a2064656372656173656420616c6c6f77616e63652062656c6f77604482015264207a65726f60d81b6064820152608401610650565b6105b08286868403610b1d565b5f3361058e818585610cb8565b5f8181526001602052604081206104eb906111b7565b5f82815260208190526040902060010154610a3f81610e6c565b6105df8383610e97565b6001600160a01b039182165f90815260036020908152604080832093909416825291909152205490565b610a7b6110b6565b6001600160a01b038116610ae05760405162461bcd60e51b815260206004820152602660248201527f4f776e61626c653a206e6577206f776e657220697320746865207a65726f206160448201526564647265737360d01b6064820152608401610650565b6107d781611116565b5f6001600160e01b03198216637965db0b60e01b14806104eb57506301ffc9a760e01b6001600160e01b03198316146104eb565b6001600160a01b038316610b7f5760405162461bcd60e51b8152602060048201526024808201527f45524332303a20617070726f76652066726f6d20746865207a65726f206164646044820152637265737360e01b6064820152608401610650565b6001600160a01b038216610be05760405162461bcd60e51b815260206004820152602260248201527f45524332303a20617070726f766520746f20746865207a65726f206164647265604482015261737360f01b6064820152608401610650565b6001600160a01b038381165f8181526003602090815260408083209487168084529482529182902085905590518481527f8c5be1e5ebec7d5bd14f71427d1e84f3dd0314c0f7b2291e5b200ac8c7c3b925910160405180910390a3505050565b5f610c4b8484610a49565b90505f198114610cb25781811015610ca55760405162461bcd60e51b815260206004820152601d60248201527f45524332303a20696e73756666696369656e7420616c6c6f77616e63650000006044820152606401610650565b610cb28484848403610b1d565b50505050565b6001600160a01b038316610d1c5760405162461bcd60e51b815260206004820152602560248201527f45524332303a207472616e736665722066726f6d20746865207a65726f206164604482015264647265737360d81b6064820152608401610650565b6001600160a01b038216610d7e5760405162461bcd60e51b815260206004820152602360248201527f45524332303a207472616e7366657220746f20746865207a65726f206164647260448201526265737360e81b6064820152608401610650565b610d898383836111c0565b6001600160a01b0383165f9081526002602052604090205481811015610e005760405162461bcd60e51b815260206004820152602660248201527f45524332303a207472616e7366657220616d6f756e7420657863656564732062604482015265616c616e636560d01b6064820152608401610650565b6001600160a01b038085165f8181526002602052604080822086860390559286168082529083902080548601905591517fddf252ad1be2c89b69c2b068fc378daa952ba7f163c4a11628f55a4df523b3ef90610e5f9086815260200190565b60405180910390a3610cb2565b6107d781336111cb565b610e808282611224565b5f8281526001602052604090206105df90826112a7565b610ea182826112bb565b5f8281526001602052604090206105df908261131f565b610ec0611333565b6007805460ff191690557f5db9ee0a495bf2e6ff9c91a7834c1ba4fdd244a5e8aa4e537bd38aeae4b073aa335b6040516001600160a01b03909116815260200160405180910390a1565b60085481610f1760045490565b610f2191906119d4565b1115610f6f5760405162461bcd60e51b815260206004820152601960248201527f45524332304361707065643a20636170206578636565646564000000000000006044820152606401610650565b610663828261137c565b6001600160a01b038216610fd95760405162461bcd60e51b815260206004820152602160248201527f45524332303a206275726e2066726f6d20746865207a65726f206164647265736044820152607360f81b6064820152608401610650565b610fe4825f836111c0565b6001600160a01b0382165f90815260026020526040902054818110156110575760405162461bcd60e51b815260206004820152602260248201527f45524332303a206275726e20616d6f756e7420657863656564732062616c616e604482015261636560f01b6064820152608401610650565b6001600160a01b0383165f8181526002602090815260408083208686039055600480548790039055518581529192917fddf252ad1be2c89b69c2b068fc378daa952ba7f163c4a11628f55a4df523b3ef910160405180910390a3505050565b6007546001600160a01b0361010090910416331461072c5760405162461bcd60e51b815260206004820181905260248201527f4f776e61626c653a2063616c6c6572206973206e6f7420746865206f776e65726044820152606401610650565b600780546001600160a01b03838116610100818102610100600160a81b031985161790945560405193909204169182907f8be0079c531659141344cd1fd0a4f28419497f9722a3daafe3b4186f6b6457e0905f90a35050565b611177611446565b6007805460ff191660011790557f62e78cea01bee320cd4e420270b5ea74000d11b0c9f74754ebdbfc544b05a258610eed3390565b5f61094a838361148c565b5f6104eb825490565b6105df8383836114b2565b6111d58282610951565b610663576111e281611518565b6111ed83602061152a565b6040516020016111fe9291906119e7565b60408051601f198184030181529082905262461bcd60e51b825261065091600401611838565b61122e8282610951565b610663575f828152602081815260408083206001600160a01b03851684529091529020805460ff191660011790556112633390565b6001600160a01b0316816001600160a01b0316837f2f8788117e7eff1d82e926ec794901d17c78024a50270940304540a733656f0d60405160405180910390a45050565b5f61094a836001600160a01b0384166116c0565b6112c58282610951565b15610663575f828152602081815260408083206001600160a01b0385168085529252808320805460ff1916905551339285917ff6391f5c32d9c69d2a47ea670b442974b53935d1edc7fd64eb21e047a839171b9190a45050565b5f61094a836001600160a01b03841661170c565b60075460ff1661072c5760405162461bcd60e51b815260206004820152601460248201527314185d5cd8589b194e881b9bdd081c185d5cd95960621b6044820152606401610650565b6001600160a01b0382166113d25760405162461bcd60e51b815260206004820152601f60248201527f45524332303a206d696e7420746f20746865207a65726f2061646472657373006044820152606401610650565b6113dd5f83836111c0565b8060045f8282546113ee91906119d4565b90915550506001600160a01b0382165f818152600260209081526040808320805486019055518481527fddf252ad1be2c89b69c2b068fc378daa952ba7f163c4a11628f55a4df523b3ef910160405180910390a35050565b60075460ff161561072c5760405162461bcd60e51b815260206004820152601060248201526f14185d5cd8589b194e881c185d5cd95960821b6044820152606401610650565b5f825f0182815481106114a1576114a1611a5b565b905f5260205f200154905092915050565b60075460ff16156105df5760405162461bcd60e51b815260206004820152602a60248201527f45524332305061757361626c653a20746f6b656e207472616e736665722077686044820152691a5b19481c185d5cd95960b21b6064820152608401610650565b60606104eb6001600160a01b03831660145b60605f611538836002611a6f565b6115439060026119d4565b67ffffffffffffffff81111561155b5761155b611a86565b6040519080825280601f01601f191660200182016040528015611585576020820181803683370190505b509050600360fc1b815f8151811061159f5761159f611a5b565b60200101906001600160f81b03191690815f1a905350600f60fb1b816001815181106115cd576115cd611a5b565b60200101906001600160f81b03191690815f1a9053505f6115ef846002611a6f565b6115fa9060016119d4565b90505b6001811115611671576f181899199a1a9b1b9c1cb0b131b232b360811b85600f166010811061162e5761162e611a5b565b1a60f81b82828151811061164457611644611a5b565b60200101906001600160f81b03191690815f1a90535060049490941c9361166a81611a9a565b90506115fd565b50831561094a5760405162461bcd60e51b815260206004820181905260248201527f537472696e67733a20686578206c656e67746820696e73756666696369656e746044820152606401610650565b5f81815260018301602052604081205461170557508154600181810184555f8481526020808220909301849055845484825282860190935260409020919091556104eb565b505f6104eb565b5f81815260018301602052604081205480156117e6575f61172e600183611aaf565b85549091505f9061174190600190611aaf565b90508181146117a0575f865f01828154811061175f5761175f611a5b565b905f5260205f200154905080875f01848154811061177f5761177f611a5b565b5f918252602080832090910192909255918252600188019052604090208390555b85548690806117b1576117b1611ac2565b600190038181905f5260205f20015f90559055856001015f8681526020019081526020015f205f9055600193505050506104eb565b5f9150506104eb565b5f602082840312156117ff575f80fd5b81356001600160e01b03198116811461094a575f80fd5b5f5b83811015611830578181015183820152602001611818565b50505f910152565b602081525f8251806020840152611856816040850160208701611816565b601f01601f19169190910160400192915050565b80356001600160a01b0381168114611880575f80fd5b919050565b5f8060408385031215611896575f80fd5b61189f8361186a565b946020939093013593505050565b5f805f606084860312156118bf575f80fd5b6118c88461186a565b92506118d66020850161186a565b9150604084013590509250925092565b5f602082840312156118f6575f80fd5b5035919050565b5f806040838503121561190e575f80fd5b8235915061191e6020840161186a565b90509250929050565b5f60208284031215611937575f80fd5b61094a8261186a565b5f8060408385031215611951575f80fd5b50508035926020909101359150565b5f8060408385031215611971575f80fd5b61197a8361186a565b915061191e6020840161186a565b600181811c9082168061199c57607f821691505b6020821081036119ba57634e487b7160e01b5f52602260045260245ffd5b50919050565b634e487b7160e01b5f52601160045260245ffd5b808201808211156104eb576104eb6119c0565b7f416363657373436f6e74726f6c3a206163636f756e742000000000000000000081525f8351611a1e816017850160208801611816565b7001034b99036b4b9b9b4b733903937b6329607d1b6017918401918201528351611a4f816028840160208801611816565b01602801949350505050565b634e487b7160e01b5f52603260045260245ffd5b80820281158282048414176104eb576104eb6119c0565b634e487b7160e01b5f52604160045260245ffd5b5f81611aa857611aa86119c0565b505f190190565b818103818111156104eb576104eb6119c0565b634e487b7160e01b5f52603160045260245ffdfea26469706673582212200ce95dfb645b1fa8f308293863df0d6881d0f7ef622c3dcd3c1a80ecd0f935ca64736f6c63430008150033",
  "immutableReferences": {},
  "source": "// SPDX-License-Identifier: UNLICENSED\n\npragma solidity >=0.5.0 <0.9.0;\npragma abicoder v2;\n\nimport \"../node_modules/@openzeppelin/contracts/token/ERC20/presets/ERC20PresetMinterPauser.sol\";\nimport \"../node_modules/@openzeppelin/contracts/access/Ownable.sol\";\n\ncontract Token is ERC20PresetMinterPauser, Ownable {\n    uint256 private _cap;\n    bytes32 public constant CAPPER_ROLE = keccak256(\"CAPPER_ROLE\");\n\n\tconstructor() ERC20PresetMinterPauser(\"Token\", \"TKN\") {\n        require(20_000_000 > 0, \"ERC20Capped: cap is 0\");\n        _cap = 20_000_000;\n\n        _setupRole(CAPPER_ROLE, _msgSender());\n\n        _mint(_msgSender(), 1000);\n    }\n\n    function cap() public view virtual returns (uint256) {\n        return _cap; \n    }\n\n    function changeCap(uint256 _newCap) public virtual {\n        require(hasRole(CAPPER_ROLE, _msgSender()), \"Token: must have capper role to set new cap\");\n        _cap = _newCap;\n    }\n\n    function _mint(address account, uint256 amount) internal virtual override {\n        require(ERC20.totalSupply() + amount <= cap(), \"ERC20Capped: cap exceeded\");\n        super._mint(account, amount);\n    }\n\n}\n\n",
  "sourcePath": "/Users/shaunlindsley/Desktop/coding/moralis-academy-courses/erc20_token/contracts/Token.sol",
  "compiler": {
    "name": "solc",
    "version": "0.8.21+commit.d9974bed.Emscripten.clang"
  },
  "schemaVersion": "3.4.14",
  "updatedAt": "2023-07-25T14:01:37.734Z",
  "networkType": "ethereum",
  "devdoc": {
    "events": {
      "Approval(address,address,uint256)": {
        "details": "Emitted when the allowance of a `spender` for an `owner` is set by a call to {approve}. `value` is the new allowance."
      },
      "Paused(address)": {
        "details": "Emitted when the pause is triggered by `account`."
      },
      "RoleAdminChanged(bytes32,bytes32,bytes32)": {
        "details": "Emitted when `newAdminRole` is set as ``role``'s admin role, replacing `previousAdminRole` `DEFAULT_ADMIN_ROLE` is the starting admin for all roles, despite {RoleAdminChanged} not being emitted signaling this. _Available since v3.1._"
      },
      "RoleGranted(bytes32,address,address)": {
        "details": "Emitted when `account` is granted `role`. `sender` is the account that originated the contract call, an admin role bearer except when using {AccessControl-_setupRole}."
      },
      "RoleRevoked(bytes32,address,address)": {
        "details": "Emitted when `account` is revoked `role`. `sender` is the account that originated the contract call:   - if using `revokeRole`, it is the admin role bearer   - if using `renounceRole`, it is the role bearer (i.e. `account`)"
      },
      "Transfer(address,address,uint256)": {
        "details": "Emitted when `value` tokens are moved from one account (`from`) to another (`to`). Note that `value` may be zero."
      },
      "Unpaused(address)": {
        "details": "Emitted when the pause is lifted by `account`."
      }
    },
    "kind": "dev",
    "methods": {
      "allowance(address,address)": {
        "details": "See {IERC20-allowance}."
      },
      "approve(address,uint256)": {
        "details": "See {IERC20-approve}. NOTE: If `amount` is the maximum `uint256`, the allowance is not updated on `transferFrom`. This is semantically equivalent to an infinite approval. Requirements: - `spender` cannot be the zero address."
      },
      "balanceOf(address)": {
        "details": "See {IERC20-balanceOf}."
      },
      "burn(uint256)": {
        "details": "Destroys `amount` tokens from the caller. See {ERC20-_burn}."
      },
      "burnFrom(address,uint256)": {
        "details": "Destroys `amount` tokens from `account`, deducting from the caller's allowance. See {ERC20-_burn} and {ERC20-allowance}. Requirements: - the caller must have allowance for ``accounts``'s tokens of at least `amount`."
      },
      "decimals()": {
        "details": "Returns the number of decimals used to get its user representation. For example, if `decimals` equals `2`, a balance of `505` tokens should be displayed to a user as `5.05` (`505 / 10 ** 2`). Tokens usually opt for a value of 18, imitating the relationship between Ether and Wei. This is the default value returned by this function, unless it's overridden. NOTE: This information is only used for _display_ purposes: it in no way affects any of the arithmetic of the contract, including {IERC20-balanceOf} and {IERC20-transfer}."
      },
      "decreaseAllowance(address,uint256)": {
        "details": "Atomically decreases the allowance granted to `spender` by the caller. This is an alternative to {approve} that can be used as a mitigation for problems described in {IERC20-approve}. Emits an {Approval} event indicating the updated allowance. Requirements: - `spender` cannot be the zero address. - `spender` must have allowance for the caller of at least `subtractedValue`."
      },
      "getRoleAdmin(bytes32)": {
        "details": "Returns the admin role that controls `role`. See {grantRole} and {revokeRole}. To change a role's admin, use {_setRoleAdmin}."
      },
      "getRoleMember(bytes32,uint256)": {
        "details": "Returns one of the accounts that have `role`. `index` must be a value between 0 and {getRoleMemberCount}, non-inclusive. Role bearers are not sorted in any particular way, and their ordering may change at any point. WARNING: When using {getRoleMember} and {getRoleMemberCount}, make sure you perform all queries on the same block. See the following https://forum.openzeppelin.com/t/iterating-over-elements-on-enumerableset-in-openzeppelin-contracts/2296[forum post] for more information."
      },
      "getRoleMemberCount(bytes32)": {
        "details": "Returns the number of accounts that have `role`. Can be used together with {getRoleMember} to enumerate all bearers of a role."
      },
      "grantRole(bytes32,address)": {
        "details": "Grants `role` to `account`. If `account` had not been already granted `role`, emits a {RoleGranted} event. Requirements: - the caller must have ``role``'s admin role. May emit a {RoleGranted} event."
      },
      "hasRole(bytes32,address)": {
        "details": "Returns `true` if `account` has been granted `role`."
      },
      "increaseAllowance(address,uint256)": {
        "details": "Atomically increases the allowance granted to `spender` by the caller. This is an alternative to {approve} that can be used as a mitigation for problems described in {IERC20-approve}. Emits an {Approval} event indicating the updated allowance. Requirements: - `spender` cannot be the zero address."
      },
      "mint(address,uint256)": {
        "details": "Creates `amount` new tokens for `to`. See {ERC20-_mint}. Requirements: - the caller must have the `MINTER_ROLE`."
      },
      "name()": {
        "details": "Returns the name of the token."
      },
      "owner()": {
        "details": "Returns the address of the current owner."
      },
      "pause()": {
        "details": "Pauses all token transfers. See {ERC20Pausable} and {Pausable-_pause}. Requirements: - the caller must have the `PAUSER_ROLE`."
      },
      "paused()": {
        "details": "Returns true if the contract is paused, and false otherwise."
      },
      "renounceOwnership()": {
        "details": "Leaves the contract without owner. It will not be possible to call `onlyOwner` functions. Can only be called by the current owner. NOTE: Renouncing ownership will leave the contract without an owner, thereby disabling any functionality that is only available to the owner."
      },
      "renounceRole(bytes32,address)": {
        "details": "Revokes `role` from the calling account. Roles are often managed via {grantRole} and {revokeRole}: this function's purpose is to provide a mechanism for accounts to lose their privileges if they are compromised (such as when a trusted device is misplaced). If the calling account had been revoked `role`, emits a {RoleRevoked} event. Requirements: - the caller must be `account`. May emit a {RoleRevoked} event."
      },
      "revokeRole(bytes32,address)": {
        "details": "Revokes `role` from `account`. If `account` had been granted `role`, emits a {RoleRevoked} event. Requirements: - the caller must have ``role``'s admin role. May emit a {RoleRevoked} event."
      },
      "supportsInterface(bytes4)": {
        "details": "See {IERC165-supportsInterface}."
      },
      "symbol()": {
        "details": "Returns the symbol of the token, usually a shorter version of the name."
      },
      "totalSupply()": {
        "details": "See {IERC20-totalSupply}."
      },
      "transfer(address,uint256)": {
        "details": "See {IERC20-transfer}. Requirements: - `to` cannot be the zero address. - the caller must have a balance of at least `amount`."
      },
      "transferFrom(address,address,uint256)": {
        "details": "See {IERC20-transferFrom}. Emits an {Approval} event indicating the updated allowance. This is not required by the EIP. See the note at the beginning of {ERC20}. NOTE: Does not update the allowance if the current allowance is the maximum `uint256`. Requirements: - `from` and `to` cannot be the zero address. - `from` must have a balance of at least `amount`. - the caller must have allowance for ``from``'s tokens of at least `amount`."
      },
      "transferOwnership(address)": {
        "details": "Transfers ownership of the contract to a new account (`newOwner`). Can only be called by the current owner."
      },
      "unpause()": {
        "details": "Unpauses all token transfers. See {ERC20Pausable} and {Pausable-_unpause}. Requirements: - the caller must have the `PAUSER_ROLE`."
      }
    },
    "version": 1
  },
  "userdoc": {
    "kind": "user",
    "methods": {},
    "version": 1
  }
}